{
  "contractName": "ApprovalContract",
  "abi": [
    {
      "constant": true,
      "inputs": [],
      "name": "approver",
      "outputs": [
        {
          "name": "",
          "type": "address"
        }
      ],
      "payable": false,
      "stateMutability": "view",
      "type": "function"
    },
    {
      "constant": true,
      "inputs": [],
      "name": "sender",
      "outputs": [
        {
          "name": "",
          "type": "address"
        }
      ],
      "payable": false,
      "stateMutability": "view",
      "type": "function"
    },
    {
      "constant": true,
      "inputs": [],
      "name": "receiver",
      "outputs": [
        {
          "name": "",
          "type": "address"
        }
      ],
      "payable": false,
      "stateMutability": "view",
      "type": "function"
    },
    {
      "constant": false,
      "inputs": [
        {
          "name": "_receiver",
          "type": "address"
        }
      ],
      "name": "deposit",
      "outputs": [],
      "payable": true,
      "stateMutability": "payable",
      "type": "function"
    },
    {
      "constant": true,
      "inputs": [],
      "name": "viewApprover",
      "outputs": [
        {
          "name": "",
          "type": "address"
        }
      ],
      "payable": false,
      "stateMutability": "pure",
      "type": "function"
    },
    {
      "constant": false,
      "inputs": [],
      "name": "approve",
      "outputs": [],
      "payable": false,
      "stateMutability": "nonpayable",
      "type": "function"
    }
  ],
  "bytecode": "0x608060405234801561001057600080fd5b50610434806100206000396000f300608060405260043610610078576000357c0100000000000000000000000000000000000000000000000000000000900463ffffffff16806312424e3f1461007d578063141a8dd81461009457806367e404ce146100eb578063d93ce89c14610142578063f340fa0114610199578063f7260d3e146101cf575b600080fd5b34801561008957600080fd5b50610092610226565b005b3480156100a057600080fd5b506100a96102f6565b604051808273ffffffffffffffffffffffffffffffffffffffff1673ffffffffffffffffffffffffffffffffffffffff16815260200191505060405180910390f35b3480156100f757600080fd5b5061010061030e565b604051808273ffffffffffffffffffffffffffffffffffffffff1673ffffffffffffffffffffffffffffffffffffffff16815260200191505060405180910390f35b34801561014e57600080fd5b50610157610333565b604051808273ffffffffffffffffffffffffffffffffffffffff1673ffffffffffffffffffffffffffffffffffffffff16815260200191505060405180910390f35b6101cd600480360381019080803573ffffffffffffffffffffffffffffffffffffffff16906020019092919050505061034f565b005b3480156101db57600080fd5b506101e46103e2565b604051808273ffffffffffffffffffffffffffffffffffffffff1673ffffffffffffffffffffffffffffffffffffffff16815260200191505060405180910390f35b73bb3dcc3a4385a6b20d9a6b8bda47732add978af273ffffffffffffffffffffffffffffffffffffffff163373ffffffffffffffffffffffffffffffffffffffff1614151561027457600080fd5b600160009054906101000a900473ffffffffffffffffffffffffffffffffffffffff1673ffffffffffffffffffffffffffffffffffffffff166108fc3073ffffffffffffffffffffffffffffffffffffffff16319081150290604051600060405180830381858888f193505050501580156102f3573d6000803e3d6000fd5b50565b73bb3dcc3a4385a6b20d9a6b8bda47732add978af281565b6000809054906101000a900473ffffffffffffffffffffffffffffffffffffffff1681565b600073bb3dcc3a4385a6b20d9a6b8bda47732add978af2905090565b60003411151561035e57600080fd5b336000806101000a81548173ffffffffffffffffffffffffffffffffffffffff021916908373ffffffffffffffffffffffffffffffffffffffff16021790555080600160006101000a81548173ffffffffffffffffffffffffffffffffffffffff021916908373ffffffffffffffffffffffffffffffffffffffff16021790555050565b600160009054906101000a900473ffffffffffffffffffffffffffffffffffffffff16815600a165627a7a7230582059b298fcac5621fdc1b14fc67da40ae1a58c580cd5021b77318d4ea7a4ecd2ba0029",
  "source": "pragma solidity ^0.4.18;\r\n\r\ncontract ApprovalContract {\r\n\taddress public sender;\r\n\taddress public receiver;\r\n\taddress public constant approver = 0xBB3DcC3a4385A6B20d9A6b8bda47732adD978aF2;\r\n\r\n\tfunction deposit(address _receiver) external payable {\r\n\t\trequire(msg.value > 0);\r\n\t\tsender = msg.sender;\r\n\t\treceiver = _receiver;\r\n\t}\r\n\r\n\tfunction viewApprover() external pure returns(address) {\r\n\t\treturn(approver);\r\n\t}\r\n\r\n\tfunction approve() external {\r\n\t\trequire(msg.sender == approver);\r\n\t\treceiver.transfer(address(this).balance);\r\n\r\n\t}\r\n}",
  "sourcePath": "C:/Users/hetzer/Documents/lynda/contracts/ApprovalContract.sol",
  "compiler": {
    "name": "solc",
    "version": "0.4.24+commit.e67f0147.Emscripten.clang"
  },
  "schemaVersion": "3.0.1",
  "updatedAt": "2019-01-18T05:43:25.361Z",
  "devdoc": {
    "methods": {}
  },
  "userdoc": {
    "methods": {}
  }
}